{
  "address": "0x696358bBb1a743052E0E87BeD78AAd9d18f0e1F4",
  "abi": [
    {
      "inputs": [
        {
          "internalType": "address",
          "name": "_advisor",
          "type": "address"
        }
      ],
      "stateMutability": "nonpayable",
      "type": "constructor"
    },
    {
      "inputs": [],
      "name": "Advisor",
      "outputs": [
        {
          "internalType": "address",
          "name": "",
          "type": "address"
        }
      ],
      "stateMutability": "view",
      "type": "function"
    },
    {
      "inputs": [],
      "name": "abort",
      "outputs": [],
      "stateMutability": "nonpayable",
      "type": "function"
    },
    {
      "inputs": [
        {
          "internalType": "address",
          "name": "_advisor",
          "type": "address"
        }
      ],
      "name": "addAdvisor",
      "outputs": [],
      "stateMutability": "nonpayable",
      "type": "function"
    },
    {
      "inputs": [
        {
          "internalType": "address",
          "name": "",
          "type": "address"
        }
      ],
      "name": "advisor",
      "outputs": [
        {
          "internalType": "bool",
          "name": "",
          "type": "bool"
        }
      ],
      "stateMutability": "view",
      "type": "function"
    },
    {
      "inputs": [
        {
          "internalType": "address",
          "name": "_signer",
          "type": "address"
        },
        {
          "internalType": "bytes32",
          "name": "_messageHash",
          "type": "bytes32"
        },
        {
          "internalType": "bytes",
          "name": "_signature",
          "type": "bytes"
        }
      ],
      "name": "closeChannel",
      "outputs": [],
      "stateMutability": "nonpayable",
      "type": "function"
    },
    {
      "inputs": [
        {
          "internalType": "address",
          "name": "",
          "type": "address"
        }
      ],
      "name": "consumer",
      "outputs": [
        {
          "internalType": "bool",
          "name": "",
          "type": "bool"
        }
      ],
      "stateMutability": "view",
      "type": "function"
    },
    {
      "inputs": [],
      "name": "currentTime",
      "outputs": [
        {
          "internalType": "uint256",
          "name": "",
          "type": "uint256"
        }
      ],
      "stateMutability": "view",
      "type": "function"
    },
    {
      "inputs": [],
      "name": "openchannelAsConsumer",
      "outputs": [],
      "stateMutability": "payable",
      "type": "function"
    },
    {
      "inputs": [],
      "name": "owner",
      "outputs": [
        {
          "internalType": "address",
          "name": "",
          "type": "address"
        }
      ],
      "stateMutability": "view",
      "type": "function"
    },
    {
      "inputs": [
        {
          "internalType": "address",
          "name": "_advisor",
          "type": "address"
        }
      ],
      "name": "removeAdvisor",
      "outputs": [],
      "stateMutability": "nonpayable",
      "type": "function"
    },
    {
      "inputs": [],
      "name": "withdraw",
      "outputs": [],
      "stateMutability": "nonpayable",
      "type": "function"
    }
  ],
  "transactionHash": "0x098f7734b2455f563a97ac053ce36635aa791144c1ba36ab658cb6fea429e4a0",
  "args": [
    "0xC81d6a1c5e539313927e1E0d3e1177379CeE8DE9"
  ],
  "numDeployments": 1,
  "solcInputHash": "384785932386d5032e15d672f2616db4",
  "bytecode": "0x60806040523480156200001157600080fd5b5060405162001844380380620018448339818101604052810190620000379190620001e0565b33600360006101000a81548173ffffffffffffffffffffffffffffffffffffffff021916908373ffffffffffffffffffffffffffffffffffffffff160217905550600160008273ffffffffffffffffffffffffffffffffffffffff1673ffffffffffffffffffffffffffffffffffffffff16815260200190815260200160002060009054906101000a900460ff1615620000d057600080fd5b60018060008373ffffffffffffffffffffffffffffffffffffffff1673ffffffffffffffffffffffffffffffffffffffff16815260200190815260200160002060006101000a81548160ff02191690831515021790555080600260006101000a81548173ffffffffffffffffffffffffffffffffffffffff021916908373ffffffffffffffffffffffffffffffffffffffff160217905550426004819055505062000212565b600080fd5b600073ffffffffffffffffffffffffffffffffffffffff82169050919050565b6000620001a8826200017b565b9050919050565b620001ba816200019b565b8114620001c657600080fd5b50565b600081519050620001da81620001af565b92915050565b600060208284031215620001f957620001f862000176565b5b60006200020984828501620001c9565b91505092915050565b61162280620002226000396000f3fe60806040526004361061009c5760003560e01c8063b7ad74c011610064578063b7ad74c01461012d578063d18e81b314610156578063de69b6ac14610181578063ec142513146101be578063f46c858a146101e9578063f829cc4b146102125761009c565b80630eeccb84146100a157806335a063b4146100ca5780633ccfd60b146100e157806358fc1ff8146100f85780638da5cb5b14610102575b600080fd5b3480156100ad57600080fd5b506100c860048036038101906100c39190610dd1565b61024f565b005b3480156100d657600080fd5b506100df6103c4565b005b3480156100ed57600080fd5b506100f6610494565b005b6101006105c5565b005b34801561010e57600080fd5b506101176106aa565b6040516101249190610e0d565b60405180910390f35b34801561013957600080fd5b50610154600480360381019061014f9190610fa4565b6106d0565b005b34801561016257600080fd5b5061016b6107fa565b604051610178919061102c565b60405180910390f35b34801561018d57600080fd5b506101a860048036038101906101a39190610dd1565b610800565b6040516101b59190611062565b60405180910390f35b3480156101ca57600080fd5b506101d3610820565b6040516101e09190610e0d565b60405180910390f35b3480156101f557600080fd5b50610210600480360381019061020b9190610dd1565b610846565b005b34801561021e57600080fd5b5061023960048036038101906102349190610dd1565b6109bd565b6040516102469190611062565b60405180910390f35b600360009054906101000a900473ffffffffffffffffffffffffffffffffffffffff1673ffffffffffffffffffffffffffffffffffffffff163373ffffffffffffffffffffffffffffffffffffffff16146102df576040517f08c379a00000000000000000000000000000000000000000000000000000000081526004016102d6906110da565b60405180910390fd5b60011515600160008373ffffffffffffffffffffffffffffffffffffffff1673ffffffffffffffffffffffffffffffffffffffff16815260200190815260200160002060009054906101000a900460ff16151514610372576040517f08c379a000000000000000000000000000000000000000000000000000000000815260040161036990611146565b60405180910390fd5b600160008273ffffffffffffffffffffffffffffffffffffffff1673ffffffffffffffffffffffffffffffffffffffff16815260200190815260200160002060006101000a81549060ff021916905550565b6107086004546103d49190611195565b4214610415576040517f08c379a000000000000000000000000000000000000000000000000000000000815260040161040c90611215565b60405180910390fd5b60003373ffffffffffffffffffffffffffffffffffffffff16652d79883d200060405161044190611266565b60006040518083038185875af1925050503d806000811461047e576040519150601f19603f3d011682016040523d82523d6000602084013e610483565b606091505b505090508061049157600080fd5b50565b600360009054906101000a900473ffffffffffffffffffffffffffffffffffffffff1673ffffffffffffffffffffffffffffffffffffffff163373ffffffffffffffffffffffffffffffffffffffff1614610524576040517f08c379a000000000000000000000000000000000000000000000000000000000815260040161051b906110da565b60405180910390fd5b6000600360009054906101000a900473ffffffffffffffffffffffffffffffffffffffff1673ffffffffffffffffffffffffffffffffffffffff166516bcc41e900060405161057290611266565b60006040518083038185875af1925050503d80600081146105af576040519150601f19603f3d011682016040523d82523d6000602084013e6105b4565b606091505b50509050806105c257600080fd5b50565b6000803373ffffffffffffffffffffffffffffffffffffffff1673ffffffffffffffffffffffffffffffffffffffff16815260200190815260200160002060009054906101000a900460ff1615610651576040517f08c379a0000000000000000000000000000000000000000000000000000000008152600401610648906112c7565b60405180910390fd5b60016000803373ffffffffffffffffffffffffffffffffffffffff1673ffffffffffffffffffffffffffffffffffffffff16815260200190815260200160002060006101000a81548160ff021916908315150217905550565b600360009054906101000a900473ffffffffffffffffffffffffffffffffffffffff1681565b60006106dc83836109dd565b90508373ffffffffffffffffffffffffffffffffffffffff168173ffffffffffffffffffffffffffffffffffffffff16036107b5576000600260009054906101000a900473ffffffffffffffffffffffffffffffffffffffff1673ffffffffffffffffffffffffffffffffffffffff166516bcc41e900060405161075f90611266565b60006040518083038185875af1925050503d806000811461079c576040519150601f19603f3d011682016040523d82523d6000602084013e6107a1565b606091505b50509050806107af57600080fd5b506107f4565b6107f36040518060400160405280601281526020017f5472616e73616374696f6e206661696c65640000000000000000000000000000815250610a04565b5b50505050565b60045481565b60006020528060005260406000206000915054906101000a900460ff1681565b600260009054906101000a900473ffffffffffffffffffffffffffffffffffffffff1681565b600360009054906101000a900473ffffffffffffffffffffffffffffffffffffffff1673ffffffffffffffffffffffffffffffffffffffff163373ffffffffffffffffffffffffffffffffffffffff16146108d6576040517f08c379a00000000000000000000000000000000000000000000000000000000081526004016108cd906110da565b60405180910390fd5b600160008273ffffffffffffffffffffffffffffffffffffffff1673ffffffffffffffffffffffffffffffffffffffff16815260200190815260200160002060009054906101000a900460ff1615610963576040517f08c379a000000000000000000000000000000000000000000000000000000000815260040161095a90611333565b60405180910390fd5b60018060008373ffffffffffffffffffffffffffffffffffffffff1673ffffffffffffffffffffffffffffffffffffffff16815260200190815260200160002060006101000a81548160ff02191690831515021790555050565b60016020528060005260406000206000915054906101000a900460ff1681565b60008060006109ec8585610a9d565b915091506109f981610aee565b819250505092915050565b610a9a81604051602401610a1891906113c1565b6040516020818303038152906040527f41304fac000000000000000000000000000000000000000000000000000000007bffffffffffffffffffffffffffffffffffffffffffffffffffffffff19166020820180517bffffffffffffffffffffffffffffffffffffffffffffffffffffffff8381831617835250505050610c54565b50565b6000806041835103610ade5760008060006020860151925060408601519150606086015160001a9050610ad287828585610c7d565b94509450505050610ae7565b60006002915091505b9250929050565b60006004811115610b0257610b016113e3565b5b816004811115610b1557610b146113e3565b5b0315610c515760016004811115610b2f57610b2e6113e3565b5b816004811115610b4257610b416113e3565b5b03610b82576040517f08c379a0000000000000000000000000000000000000000000000000000000008152600401610b799061145e565b60405180910390fd5b60026004811115610b9657610b956113e3565b5b816004811115610ba957610ba86113e3565b5b03610be9576040517f08c379a0000000000000000000000000000000000000000000000000000000008152600401610be0906114ca565b60405180910390fd5b60036004811115610bfd57610bfc6113e3565b5b816004811115610c1057610c0f6113e3565b5b03610c50576040517f08c379a0000000000000000000000000000000000000000000000000000000008152600401610c479061155c565b60405180910390fd5b5b50565b60008151905060006a636f6e736f6c652e6c6f679050602083016000808483855afa5050505050565b6000807f7fffffffffffffffffffffffffffffff5d576e7357a4501ddfe92f46681b20a08360001c1115610cb8576000600391509150610d56565b600060018787878760405160008152602001604052604051610cdd94939291906115a7565b6020604051602081039080840390855afa158015610cff573d6000803e3d6000fd5b505050602060405103519050600073ffffffffffffffffffffffffffffffffffffffff168173ffffffffffffffffffffffffffffffffffffffff1603610d4d57600060019250925050610d56565b80600092509250505b94509492505050565b6000604051905090565b600080fd5b600080fd5b600073ffffffffffffffffffffffffffffffffffffffff82169050919050565b6000610d9e82610d73565b9050919050565b610dae81610d93565b8114610db957600080fd5b50565b600081359050610dcb81610da5565b92915050565b600060208284031215610de757610de6610d69565b5b6000610df584828501610dbc565b91505092915050565b610e0781610d93565b82525050565b6000602082019050610e226000830184610dfe565b92915050565b6000819050919050565b610e3b81610e28565b8114610e4657600080fd5b50565b600081359050610e5881610e32565b92915050565b600080fd5b600080fd5b6000601f19601f8301169050919050565b7f4e487b7100000000000000000000000000000000000000000000000000000000600052604160045260246000fd5b610eb182610e68565b810181811067ffffffffffffffff82111715610ed057610ecf610e79565b5b80604052505050565b6000610ee3610d5f565b9050610eef8282610ea8565b919050565b600067ffffffffffffffff821115610f0f57610f0e610e79565b5b610f1882610e68565b9050602081019050919050565b82818337600083830152505050565b6000610f47610f4284610ef4565b610ed9565b905082815260208101848484011115610f6357610f62610e63565b5b610f6e848285610f25565b509392505050565b600082601f830112610f8b57610f8a610e5e565b5b8135610f9b848260208601610f34565b91505092915050565b600080600060608486031215610fbd57610fbc610d69565b5b6000610fcb86828701610dbc565b9350506020610fdc86828701610e49565b925050604084013567ffffffffffffffff811115610ffd57610ffc610d6e565b5b61100986828701610f76565b9150509250925092565b6000819050919050565b61102681611013565b82525050565b6000602082019050611041600083018461101d565b92915050565b60008115159050919050565b61105c81611047565b82525050565b60006020820190506110776000830184611053565b92915050565b600082825260208201905092915050565b7f4572726f723a206f776e65722070726976696c65646765207265717569726564600082015250565b60006110c460208361107d565b91506110cf8261108e565b602082019050919050565b600060208201905081810360008301526110f3816110b7565b9050919050565b7f4572726f723a206e6f7420616e2061647669736f720000000000000000000000600082015250565b600061113060158361107d565b915061113b826110fa565b602082019050919050565b6000602082019050818103600083015261115f81611123565b9050919050565b7f4e487b7100000000000000000000000000000000000000000000000000000000600052601160045260246000fd5b60006111a082611013565b91506111ab83611013565b92508282019050808211156111c3576111c2611166565b5b92915050565b7f54696d65206c696d697420686173206e6f742065786365656465640000000000600082015250565b60006111ff601b8361107d565b915061120a826111c9565b602082019050919050565b6000602082019050818103600083015261122e816111f2565b9050919050565b600081905092915050565b50565b6000611250600083611235565b915061125b82611240565b600082019050919050565b600061127182611243565b9150819050919050565b7f4572726f723a20616c7265616479206120636f6e73756d657200000000000000600082015250565b60006112b160198361107d565b91506112bc8261127b565b602082019050919050565b600060208201905081810360008301526112e0816112a4565b9050919050565b7f4572726f723a20616c726561647920616e2061647669736f7200000000000000600082015250565b600061131d60198361107d565b9150611328826112e7565b602082019050919050565b6000602082019050818103600083015261134c81611310565b9050919050565b600081519050919050565b60005b8381101561137c578082015181840152602081019050611361565b60008484015250505050565b600061139382611353565b61139d818561107d565b93506113ad81856020860161135e565b6113b681610e68565b840191505092915050565b600060208201905081810360008301526113db8184611388565b905092915050565b7f4e487b7100000000000000000000000000000000000000000000000000000000600052602160045260246000fd5b7f45434453413a20696e76616c6964207369676e61747572650000000000000000600082015250565b600061144860188361107d565b915061145382611412565b602082019050919050565b600060208201905081810360008301526114778161143b565b9050919050565b7f45434453413a20696e76616c6964207369676e6174757265206c656e67746800600082015250565b60006114b4601f8361107d565b91506114bf8261147e565b602082019050919050565b600060208201905081810360008301526114e3816114a7565b9050919050565b7f45434453413a20696e76616c6964207369676e6174757265202773272076616c60008201527f7565000000000000000000000000000000000000000000000000000000000000602082015250565b600061154660228361107d565b9150611551826114ea565b604082019050919050565b6000602082019050818103600083015261157581611539565b9050919050565b61158581610e28565b82525050565b600060ff82169050919050565b6115a18161158b565b82525050565b60006080820190506115bc600083018761157c565b6115c96020830186611598565b6115d6604083018561157c565b6115e3606083018461157c565b9594505050505056fea264697066735822122052a64632980be34a4ace6ad8f1c922245a4f15dfe7edc375536f3c486f6d081764736f6c63430008110033",
  "devdoc": {
    "kind": "dev",
    "methods": {},
    "version": 1
  },
  "userdoc": {
    "kind": "user",
    "methods": {},
    "version": 1
  },
  "storageLayout": {
    "storage": [
      {
        "astId": 1408,
        "contract": "contracts/Consultancy.sol:Consultancy",
        "label": "consumer",
        "offset": 0,
        "slot": "0",
        "type": "t_mapping(t_address,t_bool)"
      },
      {
        "astId": 1412,
        "contract": "contracts/Consultancy.sol:Consultancy",
        "label": "advisor",
        "offset": 0,
        "slot": "1",
        "type": "t_mapping(t_address,t_bool)"
      },
      {
        "astId": 1414,
        "contract": "contracts/Consultancy.sol:Consultancy",
        "label": "Advisor",
        "offset": 0,
        "slot": "2",
        "type": "t_address"
      },
      {
        "astId": 1416,
        "contract": "contracts/Consultancy.sol:Consultancy",
        "label": "owner",
        "offset": 0,
        "slot": "3",
        "type": "t_address"
      },
      {
        "astId": 1418,
        "contract": "contracts/Consultancy.sol:Consultancy",
        "label": "currentTime",
        "offset": 0,
        "slot": "4",
        "type": "t_uint256"
      }
    ],
    "types": {
      "t_address": {
        "encoding": "inplace",
        "label": "address",
        "numberOfBytes": "20"
      },
      "t_bool": {
        "encoding": "inplace",
        "label": "bool",
        "numberOfBytes": "1"
      },
      "t_mapping(t_address,t_bool)": {
        "encoding": "mapping",
        "key": "t_address",
        "label": "mapping(address => bool)",
        "numberOfBytes": "32",
        "value": "t_bool"
      },
      "t_uint256": {
        "encoding": "inplace",
        "label": "uint256",
        "numberOfBytes": "32"
      }
    }
  }
}